{
  "_format": "hh-sol-artifact-1",
  "contractName": "StakingPools",
  "sourceName": "src/contracts/StakingPools.sol",
  "abi": [
    {
      "inputs": [
        {
          "internalType": "contract IMintableERC20",
          "name": "_reward",
          "type": "address"
        },
        {
          "internalType": "address",
          "name": "_governance",
          "type": "address"
        }
      ],
      "stateMutability": "nonpayable",
      "type": "constructor"
    },
    {
      "anonymous": false,
      "inputs": [
        {
          "indexed": false,
          "internalType": "address",
          "name": "governance",
          "type": "address"
        }
      ],
      "name": "GovernanceUpdated",
      "type": "event"
    },
    {
      "anonymous": false,
      "inputs": [
        {
          "indexed": false,
          "internalType": "address",
          "name": "pendingGovernance",
          "type": "address"
        }
      ],
      "name": "PendingGovernanceUpdated",
      "type": "event"
    },
    {
      "anonymous": false,
      "inputs": [
        {
          "indexed": true,
          "internalType": "uint256",
          "name": "poolId",
          "type": "uint256"
        },
        {
          "indexed": true,
          "internalType": "contract IERC20",
          "name": "token",
          "type": "address"
        }
      ],
      "name": "PoolCreated",
      "type": "event"
    },
    {
      "anonymous": false,
      "inputs": [
        {
          "indexed": true,
          "internalType": "uint256",
          "name": "poolId",
          "type": "uint256"
        },
        {
          "indexed": false,
          "internalType": "uint256",
          "name": "rewardWeight",
          "type": "uint256"
        }
      ],
      "name": "PoolRewardWeightUpdated",
      "type": "event"
    },
    {
      "anonymous": false,
      "inputs": [
        {
          "indexed": false,
          "internalType": "uint256",
          "name": "rewardRate",
          "type": "uint256"
        }
      ],
      "name": "RewardRateUpdated",
      "type": "event"
    },
    {
      "anonymous": false,
      "inputs": [
        {
          "indexed": true,
          "internalType": "address",
          "name": "user",
          "type": "address"
        },
        {
          "indexed": true,
          "internalType": "uint256",
          "name": "poolId",
          "type": "uint256"
        },
        {
          "indexed": false,
          "internalType": "uint256",
          "name": "amount",
          "type": "uint256"
        }
      ],
      "name": "TokensClaimed",
      "type": "event"
    },
    {
      "anonymous": false,
      "inputs": [
        {
          "indexed": true,
          "internalType": "address",
          "name": "user",
          "type": "address"
        },
        {
          "indexed": true,
          "internalType": "uint256",
          "name": "poolId",
          "type": "uint256"
        },
        {
          "indexed": false,
          "internalType": "uint256",
          "name": "amount",
          "type": "uint256"
        }
      ],
      "name": "TokensDeposited",
      "type": "event"
    },
    {
      "anonymous": false,
      "inputs": [
        {
          "indexed": true,
          "internalType": "address",
          "name": "user",
          "type": "address"
        },
        {
          "indexed": true,
          "internalType": "uint256",
          "name": "poolId",
          "type": "uint256"
        },
        {
          "indexed": false,
          "internalType": "uint256",
          "name": "amount",
          "type": "uint256"
        }
      ],
      "name": "TokensWithdrawn",
      "type": "event"
    },
    {
      "inputs": [],
      "name": "acceptGovernance",
      "outputs": [],
      "stateMutability": "nonpayable",
      "type": "function"
    },
    {
      "inputs": [
        {
          "internalType": "uint256",
          "name": "_poolId",
          "type": "uint256"
        }
      ],
      "name": "claim",
      "outputs": [],
      "stateMutability": "nonpayable",
      "type": "function"
    },
    {
      "inputs": [
        {
          "internalType": "contract IERC20",
          "name": "_token",
          "type": "address"
        }
      ],
      "name": "createPool",
      "outputs": [
        {
          "internalType": "uint256",
          "name": "",
          "type": "uint256"
        }
      ],
      "stateMutability": "nonpayable",
      "type": "function"
    },
    {
      "inputs": [
        {
          "internalType": "uint256",
          "name": "_poolId",
          "type": "uint256"
        },
        {
          "internalType": "uint256",
          "name": "_depositAmount",
          "type": "uint256"
        }
      ],
      "name": "deposit",
      "outputs": [],
      "stateMutability": "nonpayable",
      "type": "function"
    },
    {
      "inputs": [
        {
          "internalType": "uint256",
          "name": "_poolId",
          "type": "uint256"
        }
      ],
      "name": "exit",
      "outputs": [],
      "stateMutability": "nonpayable",
      "type": "function"
    },
    {
      "inputs": [
        {
          "internalType": "uint256",
          "name": "_poolId",
          "type": "uint256"
        }
      ],
      "name": "getPoolRewardRate",
      "outputs": [
        {
          "internalType": "uint256",
          "name": "",
          "type": "uint256"
        }
      ],
      "stateMutability": "view",
      "type": "function"
    },
    {
      "inputs": [
        {
          "internalType": "uint256",
          "name": "_poolId",
          "type": "uint256"
        }
      ],
      "name": "getPoolRewardWeight",
      "outputs": [
        {
          "internalType": "uint256",
          "name": "",
          "type": "uint256"
        }
      ],
      "stateMutability": "view",
      "type": "function"
    },
    {
      "inputs": [
        {
          "internalType": "uint256",
          "name": "_poolId",
          "type": "uint256"
        }
      ],
      "name": "getPoolToken",
      "outputs": [
        {
          "internalType": "contract IERC20",
          "name": "",
          "type": "address"
        }
      ],
      "stateMutability": "view",
      "type": "function"
    },
    {
      "inputs": [
        {
          "internalType": "uint256",
          "name": "_poolId",
          "type": "uint256"
        }
      ],
      "name": "getPoolTotalDeposited",
      "outputs": [
        {
          "internalType": "uint256",
          "name": "",
          "type": "uint256"
        }
      ],
      "stateMutability": "view",
      "type": "function"
    },
    {
      "inputs": [
        {
          "internalType": "address",
          "name": "_account",
          "type": "address"
        },
        {
          "internalType": "uint256",
          "name": "_poolId",
          "type": "uint256"
        }
      ],
      "name": "getStakeTotalDeposited",
      "outputs": [
        {
          "internalType": "uint256",
          "name": "",
          "type": "uint256"
        }
      ],
      "stateMutability": "view",
      "type": "function"
    },
    {
      "inputs": [
        {
          "internalType": "address",
          "name": "_account",
          "type": "address"
        },
        {
          "internalType": "uint256",
          "name": "_poolId",
          "type": "uint256"
        }
      ],
      "name": "getStakeTotalUnclaimed",
      "outputs": [
        {
          "internalType": "uint256",
          "name": "",
          "type": "uint256"
        }
      ],
      "stateMutability": "view",
      "type": "function"
    },
    {
      "inputs": [],
      "name": "governance",
      "outputs": [
        {
          "internalType": "address",
          "name": "",
          "type": "address"
        }
      ],
      "stateMutability": "view",
      "type": "function"
    },
    {
      "inputs": [],
      "name": "pendingGovernance",
      "outputs": [
        {
          "internalType": "address",
          "name": "",
          "type": "address"
        }
      ],
      "stateMutability": "view",
      "type": "function"
    },
    {
      "inputs": [],
      "name": "poolCount",
      "outputs": [
        {
          "internalType": "uint256",
          "name": "",
          "type": "uint256"
        }
      ],
      "stateMutability": "view",
      "type": "function"
    },
    {
      "inputs": [],
      "name": "reward",
      "outputs": [
        {
          "internalType": "contract IMintableERC20",
          "name": "",
          "type": "address"
        }
      ],
      "stateMutability": "view",
      "type": "function"
    },
    {
      "inputs": [],
      "name": "rewardRate",
      "outputs": [
        {
          "internalType": "uint256",
          "name": "",
          "type": "uint256"
        }
      ],
      "stateMutability": "view",
      "type": "function"
    },
    {
      "inputs": [
        {
          "internalType": "address",
          "name": "_pendingGovernance",
          "type": "address"
        }
      ],
      "name": "setPendingGovernance",
      "outputs": [],
      "stateMutability": "nonpayable",
      "type": "function"
    },
    {
      "inputs": [
        {
          "internalType": "uint256",
          "name": "_rewardRate",
          "type": "uint256"
        }
      ],
      "name": "setRewardRate",
      "outputs": [],
      "stateMutability": "nonpayable",
      "type": "function"
    },
    {
      "inputs": [
        {
          "internalType": "uint256[]",
          "name": "_rewardWeights",
          "type": "uint256[]"
        }
      ],
      "name": "setRewardWeights",
      "outputs": [],
      "stateMutability": "nonpayable",
      "type": "function"
    },
    {
      "inputs": [
        {
          "internalType": "contract IERC20",
          "name": "",
          "type": "address"
        }
      ],
      "name": "tokenPoolIds",
      "outputs": [
        {
          "internalType": "uint256",
          "name": "",
          "type": "uint256"
        }
      ],
      "stateMutability": "view",
      "type": "function"
    },
    {
      "inputs": [],
      "name": "totalRewardWeight",
      "outputs": [
        {
          "internalType": "uint256",
          "name": "",
          "type": "uint256"
        }
      ],
      "stateMutability": "view",
      "type": "function"
    },
    {
      "inputs": [
        {
          "internalType": "uint256",
          "name": "_poolId",
          "type": "uint256"
        },
        {
          "internalType": "uint256",
          "name": "_withdrawAmount",
          "type": "uint256"
        }
      ],
      "name": "withdraw",
      "outputs": [],
      "stateMutability": "nonpayable",
      "type": "function"
    }
  ],
  "bytecode": "0x60806040523480156200001157600080fd5b506040516200206b3803806200206b8339810160408190526200003491620000dd565b60016000556001600160a01b038116620000ab5760405162461bcd60e51b815260206004820152602e60248201527f5374616b696e67506f6f6c733a20676f7665726e616e6365206164647265737360448201526d02063616e6e6f74206265203078360941b606482015260840160405180910390fd5b600180546001600160a01b039384166001600160a01b0319918216179091556002805492909316911617905562000134565b60008060408385031215620000f0578182fd5b8251620000fd816200011b565b602084015190925062000110816200011b565b809150509250929050565b6001600160a01b03811681146200013157600080fd5b50565b611f2780620001446000396000f3fe608060405234801561001057600080fd5b50600436106101825760003560e01c80637f8661a1116100d8578063acfc5b6d1161008c578063eda7c59911610066578063eda7c59914610360578063f39c38a014610373578063f525cb681461039357600080fd5b8063acfc5b6d14610302578063d64b84b514610345578063e2bbb1581461034d57600080fd5b8063895a9e09116100bd578063895a9e09146102c95780639049f9d2146102dc5780639e447fc6146102ef57600080fd5b80637f8661a1146102a35780637fd115d7146102b657600080fd5b806339664a311161013a5780635ac2f301116101145780635ac2f301146102755780636e5105c2146102885780637b0a47ee1461029b57600080fd5b806339664a3114610214578063441a3e70146102425780635aa6e6751461025557600080fd5b8063228cb7331161016b578063228cb733146101af578063238efcbc146101f9578063379607f51461020157600080fd5b80630361ca5a146101875780630abb60351461019c575b600080fd5b61019a610195366004611b39565b61039b565b005b61019a6101aa366004611af2565b61066e565b6001546101cf9073ffffffffffffffffffffffffffffffffffffffff1681565b60405173ffffffffffffffffffffffffffffffffffffffff90911681526020015b60405180910390f35b61019a61080c565b61019a61020f366004611bc9565b610929565b610234610222366004611af2565b60046020526000908152604090205481565b6040519081526020016101f0565b61019a610250366004611be1565b6109ee565b6002546101cf9073ffffffffffffffffffffffffffffffffffffffff1681565b610234610283366004611bc9565b610abe565b610234610296366004611bc9565b610ad7565b600554610234565b61019a6102b1366004611bc9565b610af0565b6102346102c4366004611b0e565b610bb9565b6102346102d7366004611bc9565b610c0a565b6102346102ea366004611af2565b610c2c565b61019a6102fd366004611bc9565b610e36565b610234610310366004611b0e565b73ffffffffffffffffffffffffffffffffffffffff919091166000908152600860209081526040808320938352929052205490565b600654610234565b61019a61035b366004611be1565b610ef4565b6101cf61036e366004611bc9565b610fb0565b6003546101cf9073ffffffffffffffffffffffffffffffffffffffff1681565b610234610fdc565b60025473ffffffffffffffffffffffffffffffffffffffff163314610421576040517f08c379a000000000000000000000000000000000000000000000000000000000815260206004820152601d60248201527f5374616b696e67506f6f6c733a206f6e6c7920676f7665726e616e636500000060448201526064015b60405180910390fd5b60075481146104b2576040517f08c379a000000000000000000000000000000000000000000000000000000000815260206004820152602560248201527f5374616b696e67506f6f6c733a2077656967687473206c656e677468206d697360448201527f6d617463680000000000000000000000000000000000000000000000000000006064820152608401610418565b6104ba610fec565b60065460006104c860075490565b905060005b818110156106655760006104e2600783611029565b6002810154909150868684818110610523577f4e487b7100000000000000000000000000000000000000000000000000000000600052603260045260246000fd5b90506020020135811415610538575050610653565b868684818110610571577f4e487b7100000000000000000000000000000000000000000000000000000000600052603260045260246000fd5b9050602002013581866105849190611e24565b61058e9190611c6f565b94508686848181106105c9577f4e487b7100000000000000000000000000000000000000000000000000000000600052603260045260246000fd5b6020029190910135600284015550827f4ca01fb9384991e6b301fe0ac5263aa1e34e2ea1a96dc91393e5bf3e3c34c664888883818110610632577f4e487b7100000000000000000000000000000000000000000000000000000000600052603260045260246000fd5b9050602002013560405161064891815260200190565b60405180910390a250505b8061065d81611e67565b9150506104cd565b50506006555050565b60025473ffffffffffffffffffffffffffffffffffffffff1633146106ef576040517f08c379a000000000000000000000000000000000000000000000000000000000815260206004820152601d60248201527f5374616b696e67506f6f6c733a206f6e6c7920676f7665726e616e63650000006044820152606401610418565b73ffffffffffffffffffffffffffffffffffffffff8116610792576040517f08c379a000000000000000000000000000000000000000000000000000000000815260206004820152603660248201527f5374616b696e67506f6f6c733a2070656e64696e6720676f7665726e616e636560448201527f20616464726573732063616e6e6f7420626520307830000000000000000000006064820152608401610418565b600380547fffffffffffffffffffffffff00000000000000000000000000000000000000001673ffffffffffffffffffffffffffffffffffffffff83169081179091556040519081527fc9e2377236eab4280090ce8f2317332649736d92f00dcf20a8dd6684ec5e7839906020015b60405180910390a150565b60035473ffffffffffffffffffffffffffffffffffffffff1633146108b3576040517f08c379a000000000000000000000000000000000000000000000000000000000815260206004820152602560248201527f5374616b696e67506f6f6c733a206f6e6c792070656e64696e6720676f76657260448201527f6e616e63650000000000000000000000000000000000000000000000000000006064820152608401610418565b600354600280547fffffffffffffffffffffffff00000000000000000000000000000000000000001673ffffffffffffffffffffffffffffffffffffffff90921691821790556040518181527f9d3e522e1e47a2f6009739342b9cc7b252a1888154e843ab55ee1c81745795ab90602001610801565b60026000541415610996576040517f08c379a000000000000000000000000000000000000000000000000000000000815260206004820152601f60248201527f5265656e7472616e637947756172643a207265656e7472616e742063616c6c006044820152606401610418565b600260009081556109a8600783611029565b90506109b581600561107d565b33600090815260086020908152604080832085845290915290206109db81836005611097565b6109e4836110bf565b5050600160005550565b60026000541415610a5b576040517f08c379a000000000000000000000000000000000000000000000000000000000815260206004820152601f60248201527f5265656e7472616e637947756172643a207265656e7472616e742063616c6c006044820152606401610418565b60026000908155610a6d600784611029565b9050610a7a81600561107d565b3360009081526008602090815260408083208684529091529020610aa081836005611097565b610aa9846110bf565b610ab384846111aa565b505060016000555050565b600080610acc600784611029565b600201549392505050565b600080610ae5600784611029565b600101549392505050565b60026000541415610b5d576040517f08c379a000000000000000000000000000000000000000000000000000000000815260206004820152601f60248201527f5265656e7472616e637947756172643a207265656e7472616e742063616c6c006044820152606401610418565b60026000908155610b6f600783611029565b9050610b7c81600561107d565b3360009081526008602090815260408083208584529091529020610ba281836005611097565b610bab836110bf565b6109e48382600001546111aa565b73ffffffffffffffffffffffffffffffffffffffff821660009081526008602090815260408083208484529091528120610c00610bf7600785611029565b8290600561125a565b9150505b92915050565b600080610c18600784611029565b9050610c258160056112d6565b9392505050565b60025460009073ffffffffffffffffffffffffffffffffffffffff163314610cb0576040517f08c379a000000000000000000000000000000000000000000000000000000000815260206004820152601d60248201527f5374616b696e67506f6f6c733a206f6e6c7920676f7665726e616e63650000006044820152606401610418565b73ffffffffffffffffffffffffffffffffffffffff821660009081526004602052604090205415610d63576040517f08c379a000000000000000000000000000000000000000000000000000000000815260206004820152602660248201527f5374616b696e67506f6f6c733a20746f6b656e20616c7265616479206861732060448201527f6120706f6f6c00000000000000000000000000000000000000000000000000006064820152608401610418565b6000610d6e60075490565b9050610dd16040518060a001604052808573ffffffffffffffffffffffffffffffffffffffff16815260200160008152602001600081526020016040518060200160405280600081525081526020014281525060076112f990919063ffffffff16565b610ddc816001611c6f565b73ffffffffffffffffffffffffffffffffffffffff8416600081815260046020526040808220939093559151909183917f65fc0eb45954044fb55e1b01344d5d72fbfdf88e732d955f73bb7fb2bcc131e99190a392915050565b60025473ffffffffffffffffffffffffffffffffffffffff163314610eb7576040517f08c379a000000000000000000000000000000000000000000000000000000000815260206004820152601d60248201527f5374616b696e67506f6f6c733a206f6e6c7920676f7665726e616e63650000006044820152606401610418565b610ebf610fec565b60058190556040518181527f41d466ebd06fb97e7786086ac8b69b7eb7da798592036251291d34e9791cde0190602001610801565b60026000541415610f61576040517f08c379a000000000000000000000000000000000000000000000000000000000815260206004820152601f60248201527f5265656e7472616e637947756172643a207265656e7472616e742063616c6c006044820152606401610418565b60026000908155610f73600784611029565b9050610f8081600561107d565b3360009081526008602090815260408083208684529091529020610fa681836005611097565b610ab38484611383565b600080610fbe600784611029565b5473ffffffffffffffffffffffffffffffffffffffff169392505050565b6000610fe760075490565b905090565b60005b600754811015611026576000611006600783611029565b905061101381600561107d565b508061101e81611e67565b915050610fef565b50565b6000826000018281548110611067577f4e487b7100000000000000000000000000000000000000000000000000000000600052603260045260246000fd5b9060005260206000209060050201905092915050565b611087828261142a565b5160038301555042600490910155565b6110a283838361125a565b60018401556110b1828261142a565b516002909301929092555050565b336000818152600860209081526040808320858452909152808220600180820180549490555491517f40c10f190000000000000000000000000000000000000000000000000000000081526004810194909452602484018390529273ffffffffffffffffffffffffffffffffffffffff909116906340c10f1990604401600060405180830381600087803b15801561115657600080fd5b505af115801561116a573d6000803e3d6000fd5b50506040518381528592503391507f9923b4306c6c030f2bdfbf156517d5983b87e15b96176da122cd4f2effa4ba7b9060200160405180910390a3505050565b60006111b7600784611029565b33600090815260086020908152604080832087845290915290206001820154919250906111e5908490611e24565b600183015580546111f7908490611e24565b8155815461121c9073ffffffffffffffffffffffffffffffffffffffff163385611502565b604051838152849033907fffe903c0abe6b2dbb2f3474ef43d7a3c1fca49e5a774453423ca8e1952aabffa906020015b60405180910390a350505050565b600080611267848461142a565b60408051602081019091526002870154815290915061128682826115db565b611297575050506001830154610c25565b85546000906112b9906112b4906112ae868661162a565b9061166b565b6116a8565b90508087600101546112cb9190611c6f565b979650505050505050565b600181015460028301548254600092916112ef91611de7565b610c259190611c87565b8154600180820184556000938452602093849020835160059093020180547fffffffffffffffffffffffff00000000000000000000000000000000000000001673ffffffffffffffffffffffffffffffffffffffff909316929092178255928201519281019290925560408101516002830155606081015151600383015560800151600490910155565b6000611390600784611029565b33600090815260086020908152604080832087845290915290206001820154919250906113be908490611c6f565b600183015580546113d0908490611c6f565b815581546113f69073ffffffffffffffffffffffffffffffffffffffff163330866116c2565b604051838152849033907ffdfdcf596161b0e81e3161597d46888dcc88bd83b22dcfb341c76377ca3bbc9e9060200161124c565b604080516020810190915260008152600183015461145a5750604080516020810190915260038301548152610c04565b600083600401544261146c9190611e24565b90508061148c575050604080516020810190915260038301548152610c04565b600061149885856112d6565b905060006114a68383611de7565b9050806114ca5750506040805160208101909152600385015481529150610c049050565b60006114e387600101546114dd84611726565b9061178d565b6040805160208101909152600389015481529091506112cb90826117ca565b60405173ffffffffffffffffffffffffffffffffffffffff83166024820152604481018290526115d69084907fa9059cbb00000000000000000000000000000000000000000000000000000000906064015b604080517fffffffffffffffffffffffffffffffffffffffffffffffffffffffffffffffe08184030181529190526020810180517bffffffffffffffffffffffffffffffffffffffffffffffffffffffff167fffffffff00000000000000000000000000000000000000000000000000000000909316929092179091526117f6565b505050565b80518251600091111561160f57507fffffffffffffffffffffffffffffffffffffffffffffffffffffffffffffffff610c04565b81518351111561162157506001610c04565b50600092915050565b60408051602081019091526000808252835183516116489082611e24565b915081111561165657600080fd5b60408051602081019091529081529392505050565b604080516020810190915260008152600082158061169f57508351836116918183611de7565b925061169d9083611c87565b145b61165657600080fd5b60006116b66012600a611d21565b8251610c049190611c87565b60405173ffffffffffffffffffffffffffffffffffffffff808516602483015283166044820152606481018290526117209085907f23b872dd0000000000000000000000000000000000000000000000000000000090608401611554565b50505050565b604080516020810190915260008152600082158061177057508261174c6012600a611d21565b6117586012600a611d21565b6117629086611de7565b925061176e9083611c87565b145b61177957600080fd5b604080516020810190915290815292915050565b604080516020810190915260008152816117a657600080fd5b60405180602001604052808385600001516117c19190611c87565b90529392505050565b60408051602081019091526000808252835183516117e89082611c6f565b915081101561165657600080fd5b6000611858826040518060400160405280602081526020017f5361666545524332303a206c6f772d6c6576656c2063616c6c206661696c65648152508573ffffffffffffffffffffffffffffffffffffffff166119029092919063ffffffff16565b8051909150156115d657808060200190518101906118769190611ba9565b6115d6576040517f08c379a000000000000000000000000000000000000000000000000000000000815260206004820152602a60248201527f5361666545524332303a204552433230206f7065726174696f6e20646964206e60448201527f6f742073756363656564000000000000000000000000000000000000000000006064820152608401610418565b60606119118484600085611919565b949350505050565b6060824710156119ab576040517f08c379a000000000000000000000000000000000000000000000000000000000815260206004820152602660248201527f416464726573733a20696e73756666696369656e742062616c616e636520666f60448201527f722063616c6c00000000000000000000000000000000000000000000000000006064820152608401610418565b73ffffffffffffffffffffffffffffffffffffffff85163b611a29576040517f08c379a000000000000000000000000000000000000000000000000000000000815260206004820152601d60248201527f416464726573733a2063616c6c20746f206e6f6e2d636f6e74726163740000006044820152606401610418565b6000808673ffffffffffffffffffffffffffffffffffffffff168587604051611a529190611c02565b60006040518083038185875af1925050503d8060008114611a8f576040519150601f19603f3d011682016040523d82523d6000602084013e611a94565b606091505b50915091506112cb82828660608315611aae575081610c25565b825115611abe5782518084602001fd5b816040517f08c379a00000000000000000000000000000000000000000000000000000000081526004016104189190611c1e565b600060208284031215611b03578081fd5b8135610c2581611ecf565b60008060408385031215611b20578081fd5b8235611b2b81611ecf565b946020939093013593505050565b60008060208385031215611b4b578182fd5b823567ffffffffffffffff80821115611b62578384fd5b818501915085601f830112611b75578384fd5b813581811115611b83578485fd5b8660208260051b8501011115611b97578485fd5b60209290920196919550909350505050565b600060208284031215611bba578081fd5b81518015158114610c25578182fd5b600060208284031215611bda578081fd5b5035919050565b60008060408385031215611bf3578182fd5b50508035926020909101359150565b60008251611c14818460208701611e3b565b9190910192915050565b6020815260008251806020840152611c3d816040850160208701611e3b565b601f017fffffffffffffffffffffffffffffffffffffffffffffffffffffffffffffffe0169190910160400192915050565b60008219821115611c8257611c82611ea0565b500190565b600082611cbb577f4e487b710000000000000000000000000000000000000000000000000000000081526012600452602481fd5b500490565b600181815b80851115611d1957817fffffffffffffffffffffffffffffffffffffffffffffffffffffffffffffffff04821115611cff57611cff611ea0565b80851615611d0c57918102915b93841c9390800290611cc5565b509250929050565b6000610c258383600082611d3757506001610c04565b81611d4457506000610c04565b8160018114611d5a5760028114611d6457611d80565b6001915050610c04565b60ff841115611d7557611d75611ea0565b50506001821b610c04565b5060208310610133831016604e8410600b8410161715611da3575081810a610c04565b611dad8383611cc0565b807fffffffffffffffffffffffffffffffffffffffffffffffffffffffffffffffff04821115611ddf57611ddf611ea0565b029392505050565b6000817fffffffffffffffffffffffffffffffffffffffffffffffffffffffffffffffff0483118215151615611e1f57611e1f611ea0565b500290565b600082821015611e3657611e36611ea0565b500390565b60005b83811015611e56578181015183820152602001611e3e565b838111156117205750506000910152565b60007fffffffffffffffffffffffffffffffffffffffffffffffffffffffffffffffff821415611e9957611e99611ea0565b5060010190565b7f4e487b7100000000000000000000000000000000000000000000000000000000600052601160045260246000fd5b73ffffffffffffffffffffffffffffffffffffffff8116811461102657600080fdfea264697066735822122045f5448aaaab034bd164fa6a5f51769246a0fc3eed23141ed38599cf3730ec1b64736f6c63430008040033",
  "linkReferences": {},
  "deployedLinkReferences": {}
}