{
  "_format": "hh-sol-artifact-1",
  "contractName": "FixedPointMath",
  "sourceName": "src/libraries/FixedPointMath.sol",
  "abi": [
    {
      "inputs": [],
      "name": "DECIMALS",
      "outputs": [
        {
          "internalType": "uint256",
          "name": "",
          "type": "uint256"
        }
      ],
      "stateMutability": "view",
      "type": "function"
    },
    {
      "inputs": [],
      "name": "SCALAR",
      "outputs": [
        {
          "internalType": "uint256",
          "name": "",
          "type": "uint256"
        }
      ],
      "stateMutability": "view",
      "type": "function"
    }
  ],
  "bytecode": "0x61020b61003a600b82828239805160001a60731461002d57634e487b7160e01b600052600060045260246000fd5b30600052607381538281f3fe73000000000000000000000000000000000000000030146080604052600436106100405760003560e01c80632e0f2625146100455780636bf301a41461005f575b600080fd5b61004d601281565b60405190815260200160405180910390f35b61004d61006e6012600a6100d2565b81565b600181815b808511156100ca57817fffffffffffffffffffffffffffffffffffffffffffffffffffffffffffffffff048211156100b0576100b06101a6565b808516156100bd57918102915b93841c9390800290610076565b509250929050565b60006100de83836100e5565b9392505050565b6000826100f4575060016101a0565b81610101575060006101a0565b816001811461011757600281146101215761013d565b60019150506101a0565b60ff841115610132576101326101a6565b50506001821b6101a0565b5060208310610133831016604e8410600b8410161715610160575081810a6101a0565b61016a8383610071565b807fffffffffffffffffffffffffffffffffffffffffffffffffffffffffffffffff0482111561019c5761019c6101a6565b0290505b92915050565b7f4e487b7100000000000000000000000000000000000000000000000000000000600052601160045260246000fdfea2646970667358221220fb22d72dd14137c7388e2accdc9814236df77383fe602390c8c625a6c25e219064736f6c63430008040033",
  "linkReferences": {},
  "deployedLinkReferences": {}
}